{
  "_format": "hh-sol-artifact-1",
  "contractName": "ThermCoin",
  "sourceName": "contracts/ThermCoin.sol",
  "abi": [
    {
      "inputs": [
        {
          "internalType": "uint256",
          "name": "premintAmt",
          "type": "uint256"
        },
        {
          "internalType": "uint256",
          "name": "baseFee",
          "type": "uint256"
        },
        {
          "internalType": "uint256",
          "name": "feeIncrement",
          "type": "uint256"
        },
        {
          "internalType": "uint256",
          "name": "volumeThreshold",
          "type": "uint256"
        }
      ],
      "stateMutability": "nonpayable",
      "type": "constructor"
    },
    {
      "anonymous": false,
      "inputs": [
        {
          "indexed": true,
          "internalType": "address",
          "name": "owner",
          "type": "address"
        },
        {
          "indexed": true,
          "internalType": "address",
          "name": "spender",
          "type": "address"
        },
        {
          "indexed": false,
          "internalType": "uint256",
          "name": "value",
          "type": "uint256"
        }
      ],
      "name": "Approval",
      "type": "event"
    },
    {
      "anonymous": false,
      "inputs": [
        {
          "indexed": true,
          "internalType": "address",
          "name": "previousOwner",
          "type": "address"
        },
        {
          "indexed": true,
          "internalType": "address",
          "name": "newOwner",
          "type": "address"
        }
      ],
      "name": "OwnershipTransferred",
      "type": "event"
    },
    {
      "anonymous": false,
      "inputs": [
        {
          "indexed": false,
          "internalType": "uint256",
          "name": "oldScalingFactor",
          "type": "uint256"
        },
        {
          "indexed": false,
          "internalType": "uint256",
          "name": "newScalingFactor",
          "type": "uint256"
        }
      ],
      "name": "Rebase",
      "type": "event"
    },
    {
      "anonymous": false,
      "inputs": [
        {
          "indexed": true,
          "internalType": "address",
          "name": "from",
          "type": "address"
        },
        {
          "indexed": true,
          "internalType": "address",
          "name": "to",
          "type": "address"
        },
        {
          "indexed": false,
          "internalType": "uint256",
          "name": "value",
          "type": "uint256"
        }
      ],
      "name": "Transfer",
      "type": "event"
    },
    {
      "inputs": [
        {
          "internalType": "address",
          "name": "owner",
          "type": "address"
        },
        {
          "internalType": "address",
          "name": "spender",
          "type": "address"
        }
      ],
      "name": "allowance",
      "outputs": [
        {
          "internalType": "uint256",
          "name": "",
          "type": "uint256"
        }
      ],
      "stateMutability": "view",
      "type": "function"
    },
    {
      "inputs": [
        {
          "internalType": "address",
          "name": "spender",
          "type": "address"
        },
        {
          "internalType": "uint256",
          "name": "amount",
          "type": "uint256"
        }
      ],
      "name": "approve",
      "outputs": [
        {
          "internalType": "bool",
          "name": "",
          "type": "bool"
        }
      ],
      "stateMutability": "nonpayable",
      "type": "function"
    },
    {
      "inputs": [
        {
          "internalType": "address",
          "name": "account",
          "type": "address"
        }
      ],
      "name": "balanceOf",
      "outputs": [
        {
          "internalType": "uint256",
          "name": "",
          "type": "uint256"
        }
      ],
      "stateMutability": "view",
      "type": "function"
    },
    {
      "inputs": [],
      "name": "decimals",
      "outputs": [
        {
          "internalType": "uint8",
          "name": "",
          "type": "uint8"
        }
      ],
      "stateMutability": "view",
      "type": "function"
    },
    {
      "inputs": [
        {
          "internalType": "address",
          "name": "spender",
          "type": "address"
        },
        {
          "internalType": "uint256",
          "name": "subtractedValue",
          "type": "uint256"
        }
      ],
      "name": "decreaseAllowance",
      "outputs": [
        {
          "internalType": "bool",
          "name": "",
          "type": "bool"
        }
      ],
      "stateMutability": "nonpayable",
      "type": "function"
    },
    {
      "inputs": [
        {
          "internalType": "address[]",
          "name": "recipients",
          "type": "address[]"
        },
        {
          "internalType": "uint256",
          "name": "amount",
          "type": "uint256"
        },
        {
          "internalType": "uint256",
          "name": "startIndex",
          "type": "uint256"
        },
        {
          "internalType": "uint256",
          "name": "batchSize",
          "type": "uint256"
        }
      ],
      "name": "distributeReward",
      "outputs": [],
      "stateMutability": "nonpayable",
      "type": "function"
    },
    {
      "inputs": [],
      "name": "getFeeParams",
      "outputs": [
        {
          "internalType": "uint256",
          "name": "",
          "type": "uint256"
        },
        {
          "internalType": "uint256",
          "name": "",
          "type": "uint256"
        },
        {
          "internalType": "uint256",
          "name": "",
          "type": "uint256"
        }
      ],
      "stateMutability": "view",
      "type": "function"
    },
    {
      "inputs": [
        {
          "internalType": "uint256",
          "name": "scaledAmount",
          "type": "uint256"
        }
      ],
      "name": "getNormalizedAmount",
      "outputs": [
        {
          "internalType": "uint256",
          "name": "",
          "type": "uint256"
        }
      ],
      "stateMutability": "view",
      "type": "function"
    },
    {
      "inputs": [
        {
          "internalType": "uint256",
          "name": "normalizedAmount",
          "type": "uint256"
        }
      ],
      "name": "getScaledAmount",
      "outputs": [
        {
          "internalType": "uint256",
          "name": "",
          "type": "uint256"
        }
      ],
      "stateMutability": "view",
      "type": "function"
    },
    {
      "inputs": [],
      "name": "getScalingFactor",
      "outputs": [
        {
          "internalType": "uint256",
          "name": "",
          "type": "uint256"
        }
      ],
      "stateMutability": "view",
      "type": "function"
    },
    {
      "inputs": [],
      "name": "getTxFee",
      "outputs": [
        {
          "internalType": "uint256",
          "name": "",
          "type": "uint256"
        }
      ],
      "stateMutability": "view",
      "type": "function"
    },
    {
      "inputs": [
        {
          "internalType": "address",
          "name": "spender",
          "type": "address"
        },
        {
          "internalType": "uint256",
          "name": "addedValue",
          "type": "uint256"
        }
      ],
      "name": "increaseAllowance",
      "outputs": [
        {
          "internalType": "bool",
          "name": "",
          "type": "bool"
        }
      ],
      "stateMutability": "nonpayable",
      "type": "function"
    },
    {
      "inputs": [
        {
          "internalType": "address",
          "name": "to",
          "type": "address"
        },
        {
          "internalType": "uint256",
          "name": "amount",
          "type": "uint256"
        }
      ],
      "name": "mint",
      "outputs": [],
      "stateMutability": "nonpayable",
      "type": "function"
    },
    {
      "inputs": [],
      "name": "name",
      "outputs": [
        {
          "internalType": "string",
          "name": "",
          "type": "string"
        }
      ],
      "stateMutability": "view",
      "type": "function"
    },
    {
      "inputs": [
        {
          "internalType": "address",
          "name": "owner",
          "type": "address"
        }
      ],
      "name": "nonces",
      "outputs": [
        {
          "internalType": "uint256",
          "name": "",
          "type": "uint256"
        }
      ],
      "stateMutability": "view",
      "type": "function"
    },
    {
      "inputs": [],
      "name": "owner",
      "outputs": [
        {
          "internalType": "address",
          "name": "",
          "type": "address"
        }
      ],
      "stateMutability": "view",
      "type": "function"
    },
    {
      "inputs": [
        {
          "internalType": "uint256",
          "name": "percentageChange",
          "type": "uint256"
        }
      ],
      "name": "rebase",
      "outputs": [],
      "stateMutability": "nonpayable",
      "type": "function"
    },
    {
      "inputs": [],
      "name": "renounceOwnership",
      "outputs": [],
      "stateMutability": "nonpayable",
      "type": "function"
    },
    {
      "inputs": [],
      "name": "scalingDecimals",
      "outputs": [
        {
          "internalType": "uint8",
          "name": "",
          "type": "uint8"
        }
      ],
      "stateMutability": "view",
      "type": "function"
    },
    {
      "inputs": [
        {
          "internalType": "uint256",
          "name": "newBase",
          "type": "uint256"
        },
        {
          "internalType": "uint256",
          "name": "newIncrement",
          "type": "uint256"
        },
        {
          "internalType": "uint256",
          "name": "newThreshold",
          "type": "uint256"
        }
      ],
      "name": "setFeeParams",
      "outputs": [],
      "stateMutability": "nonpayable",
      "type": "function"
    },
    {
      "inputs": [],
      "name": "symbol",
      "outputs": [
        {
          "internalType": "string",
          "name": "",
          "type": "string"
        }
      ],
      "stateMutability": "view",
      "type": "function"
    },
    {
      "inputs": [],
      "name": "totalSupply",
      "outputs": [
        {
          "internalType": "uint256",
          "name": "",
          "type": "uint256"
        }
      ],
      "stateMutability": "view",
      "type": "function"
    },
    {
      "inputs": [
        {
          "internalType": "address",
          "name": "to",
          "type": "address"
        },
        {
          "internalType": "uint256",
          "name": "amount",
          "type": "uint256"
        }
      ],
      "name": "transfer",
      "outputs": [
        {
          "internalType": "bool",
          "name": "",
          "type": "bool"
        }
      ],
      "stateMutability": "nonpayable",
      "type": "function"
    },
    {
      "inputs": [
        {
          "internalType": "address",
          "name": "from",
          "type": "address"
        },
        {
          "internalType": "address",
          "name": "to",
          "type": "address"
        },
        {
          "internalType": "uint256",
          "name": "amount",
          "type": "uint256"
        }
      ],
      "name": "transferFrom",
      "outputs": [
        {
          "internalType": "bool",
          "name": "",
          "type": "bool"
        }
      ],
      "stateMutability": "nonpayable",
      "type": "function"
    },
    {
      "inputs": [
        {
          "internalType": "address",
          "name": "newOwner",
          "type": "address"
        }
      ],
      "name": "transferOwnership",
      "outputs": [],
      "stateMutability": "nonpayable",
      "type": "function"
    },
    {
      "inputs": [
        {
          "internalType": "address",
          "name": "from",
          "type": "address"
        },
        {
          "internalType": "address",
          "name": "to",
          "type": "address"
        },
        {
          "internalType": "uint256",
          "name": "amount",
          "type": "uint256"
        },
        {
          "internalType": "uint256",
          "name": "deadline",
          "type": "uint256"
        },
        {
          "internalType": "uint8",
          "name": "v",
          "type": "uint8"
        },
        {
          "internalType": "bytes32",
          "name": "r",
          "type": "bytes32"
        },
        {
          "internalType": "bytes32",
          "name": "s",
          "type": "bytes32"
        }
      ],
      "name": "transferWithSignature",
      "outputs": [],
      "stateMutability": "nonpayable",
      "type": "function"
    }
  ],
  "bytecode": "0x60806040523480156200001157600080fd5b50604051620037b0380380620037b08339818101604052810190620000379190620003f1565b6040518060400160405280600981526020017f546865726d436f696e00000000000000000000000000000000000000000000008152506040518060400160405280600481526020017f42545543000000000000000000000000000000000000000000000000000000008152508160039081620000b49190620006d3565b508060049081620000c69190620006d3565b5060646005819055505050620000f1620000e56200016360201b60201c565b6200016b60201b60201c565b6200012d33620001066200023160201b60201c565b600a6200011491906200094a565b866200012191906200099b565b6200023a60201b60201c565b43600a819055508260078190555081600881905550806009819055506000600b819055506000600c819055505050505062000ad2565b600033905090565b6000600660009054906101000a900473ffffffffffffffffffffffffffffffffffffffff16905081600660006101000a81548173ffffffffffffffffffffffffffffffffffffffff021916908373ffffffffffffffffffffffffffffffffffffffff1602179055508173ffffffffffffffffffffffffffffffffffffffff168173ffffffffffffffffffffffffffffffffffffffff167f8be0079c531659141344cd1fd0a4f28419497f9722a3daafe3b4186f6b6457e060405160405180910390a35050565b60006012905090565b600073ffffffffffffffffffffffffffffffffffffffff168273ffffffffffffffffffffffffffffffffffffffff1603620002ac576040517f08c379a0000000000000000000000000000000000000000000000000000000008152600401620002a39062000a47565b60405180910390fd5b620002c060008383620003a760201b60201c565b8060026000828254620002d4919062000a69565b92505081905550806000808473ffffffffffffffffffffffffffffffffffffffff1673ffffffffffffffffffffffffffffffffffffffff168152602001908152602001600020600082825401925050819055508173ffffffffffffffffffffffffffffffffffffffff16600073ffffffffffffffffffffffffffffffffffffffff167fddf252ad1be2c89b69c2b068fc378daa952ba7f163c4a11628f55a4df523b3ef8360405162000387919062000ab5565b60405180910390a3620003a360008383620003ac60201b60201c565b5050565b505050565b505050565b600080fd5b6000819050919050565b620003cb81620003b6565b8114620003d757600080fd5b50565b600081519050620003eb81620003c0565b92915050565b600080600080608085870312156200040e576200040d620003b1565b5b60006200041e87828801620003da565b94505060206200043187828801620003da565b93505060406200044487828801620003da565b92505060606200045787828801620003da565b91505092959194509250565b600081519050919050565b7f4e487b7100000000000000000000000000000000000000000000000000000000600052604160045260246000fd5b7f4e487b7100000000000000000000000000000000000000000000000000000000600052602260045260246000fd5b60006002820490506001821680620004e557607f821691505b602082108103620004fb57620004fa6200049d565b5b50919050565b60008190508160005260206000209050919050565b60006020601f8301049050919050565b600082821b905092915050565b600060088302620005657fffffffffffffffffffffffffffffffffffffffffffffffffffffffffffffffff8262000526565b62000571868362000526565b95508019841693508086168417925050509392505050565b6000819050919050565b6000620005b4620005ae620005a884620003b6565b62000589565b620003b6565b9050919050565b6000819050919050565b620005d08362000593565b620005e8620005df82620005bb565b84845462000533565b825550505050565b600090565b620005ff620005f0565b6200060c818484620005c5565b505050565b5b81811015620006345762000628600082620005f5565b60018101905062000612565b5050565b601f82111562000683576200064d8162000501565b620006588462000516565b8101602085101562000668578190505b62000680620006778562000516565b83018262000611565b50505b505050565b600082821c905092915050565b6000620006a86000198460080262000688565b1980831691505092915050565b6000620006c3838362000695565b9150826002028217905092915050565b620006de8262000463565b67ffffffffffffffff811115620006fa57620006f96200046e565b5b620007068254620004cc565b6200071382828562000638565b600060209050601f8311600181146200074b576000841562000736578287015190505b620007428582620006b5565b865550620007b2565b601f1984166200075b8662000501565b60005b8281101562000785578489015182556001820191506020850194506020810190506200075e565b86831015620007a55784890151620007a1601f89168262000695565b8355505b6001600288020188555050505b505050505050565b7f4e487b7100000000000000000000000000000000000000000000000000000000600052601160045260246000fd5b60008160011c9050919050565b6000808291508390505b6001851115620008485780860481111562000820576200081f620007ba565b5b6001851615620008305780820291505b80810290506200084085620007e9565b945062000800565b94509492505050565b60008262000863576001905062000936565b8162000873576000905062000936565b81600181146200088c57600281146200089757620008cd565b600191505062000936565b60ff841115620008ac57620008ab620007ba565b5b8360020a915084821115620008c657620008c5620007ba565b5b5062000936565b5060208310610133831016604e8410600b8410161715620009075782820a905083811115620009015762000900620007ba565b5b62000936565b620009168484846001620007f6565b9250905081840481111562000930576200092f620007ba565b5b81810290505b9392505050565b600060ff82169050919050565b60006200095782620003b6565b915062000964836200093d565b9250620009937fffffffffffffffffffffffffffffffffffffffffffffffffffffffffffffffff848462000851565b905092915050565b6000620009a882620003b6565b9150620009b583620003b6565b9250828202620009c581620003b6565b91508282048414831517620009df57620009de620007ba565b5b5092915050565b600082825260208201905092915050565b7f45524332303a206d696e7420746f20746865207a65726f206164647265737300600082015250565b600062000a2f601f83620009e6565b915062000a3c82620009f7565b602082019050919050565b6000602082019050818103600083015262000a628162000a20565b9050919050565b600062000a7682620003b6565b915062000a8383620003b6565b925082820190508082111562000a9e5762000a9d620007ba565b5b92915050565b62000aaf81620003b6565b82525050565b600060208201905062000acc600083018462000aa4565b92915050565b612cce8062000ae26000396000f3fe608060405234801561001057600080fd5b506004361061018e5760003560e01c80638da5cb5b116100de578063bc4f2d6d11610097578063dd62ed3e11610071578063dd62ed3e146104ad578063de122452146104dd578063df2f61b0146104fb578063f2fde38b146105195761018e565b8063bc4f2d6d14610455578063be6fc18114610471578063d7439afa146104915761018e565b80638da5cb5b1461036b57806395d89b41146103895780639e7d207d146103a7578063a457c2d7146103c5578063a9059cbb146103f5578063afa459ab146104255761018e565b8063395093511161014b57806370a082311161012557806370a08231146102e5578063715018a6146103155780637ecebe001461031f5780638be9f0e21461034f5761018e565b806339509351146102695780633c6134561461029957806340c10f19146102c95761018e565b806306fdde0314610193578063095ea7b3146101b157806318160ddd146101e157806319e39d5a146101ff57806323b872dd1461021b578063313ce5671461024b575b600080fd5b61019b610535565b6040516101a8919061197f565b60405180910390f35b6101cb60048036038101906101c69190611a3f565b6105c7565b6040516101d89190611a9a565b60405180910390f35b6101e96105f2565b6040516101f69190611ac4565b60405180910390f35b61021960048036038101906102149190611b4e565b610604565b005b61023560048036038101906102309190611bf0565b61081d565b6040516102429190611a9a565b60405180910390f35b61025361085c565b6040516102609190611c52565b60405180910390f35b610283600480360381019061027e9190611a3f565b610865565b6040516102909190611a9a565b60405180910390f35b6102b360048036038101906102ae9190611c6d565b6108a4565b6040516102c09190611ac4565b60405180910390f35b6102e360048036038101906102de9190611a3f565b6108c7565b005b6102ff60048036038101906102fa9190611c9a565b6108fb565b60405161030c9190611ac4565b60405180910390f35b61031d61094b565b005b61033960048036038101906103349190611c9a565b61095f565b6040516103469190611ac4565b60405180910390f35b61036960048036038101906103649190611cc7565b6109a8565b005b6103736109ca565b6040516103809190611d29565b60405180910390f35b6103916109f4565b60405161039e919061197f565b60405180910390f35b6103af610a86565b6040516103bc9190611ac4565b60405180910390f35b6103df60048036038101906103da9190611a3f565b610ab7565b6040516103ec9190611a9a565b60405180910390f35b61040f600480360381019061040a9190611a3f565b610b3e565b60405161041c9190611a9a565b60405180910390f35b61043f600480360381019061043a9190611c6d565b610b69565b60405161044c9190611ac4565b60405180910390f35b61046f600480360381019061046a9190611c6d565b610b9f565b005b610479610bb3565b60405161048893929190611d44565b60405180910390f35b6104ab60048036038101906104a69190611de0565b610bcc565b005b6104c760048036038101906104c29190611e68565b610ca4565b6040516104d49190611ac4565b60405180910390f35b6104e5610d33565b6040516104f29190611c52565b60405180910390f35b610503610d3c565b6040516105109190611ac4565b60405180910390f35b610533600480360381019061052e9190611c9a565b610d46565b005b60606003805461054490611ed7565b80601f016020809104026020016040519081016040528092919081815260200182805461057090611ed7565b80156105bd5780601f10610592576101008083540402835291602001916105bd565b820191906000526020600020905b8154815290600101906020018083116105a057829003601f168201915b5050505050905090565b6000806105d2610dc9565b90506105e781856105e286610b69565b610dd1565b600191505092915050565b60006105ff6002546108a4565b905090565b61060c610a86565b85101561064e576040517f08c379a000000000000000000000000000000000000000000000000000000000815260040161064590611f54565b60405180910390fd5b6000878787600d60008c73ffffffffffffffffffffffffffffffffffffffff1673ffffffffffffffffffffffffffffffffffffffff16815260200190815260200160002060008154809291906106a390611fa3565b91905055886040516020016106bc959493929190612054565b6040516020818303038152906040528051906020012090506106dd81610f9a565b905060006106f885858585610fd0909392919063ffffffff16565b9050600073ffffffffffffffffffffffffffffffffffffffff168173ffffffffffffffffffffffffffffffffffffffff161415801561076257508873ffffffffffffffffffffffffffffffffffffffff168173ffffffffffffffffffffffffffffffffffffffff16145b6107a1576040517f08c379a0000000000000000000000000000000000000000000000000000000008152600401610798906120ff565b60405180910390fd5b854211156107e4576040517f08c379a00000000000000000000000000000000000000000000000000000000081526004016107db9061216b565b60405180910390fd5b60006107ee610ffb565b90506108068a8a838b610801919061218b565b611049565b6108118a3383611049565b50505050505050505050565b600080610828610dc9565b905061083d858261083886610b69565b6112bf565b610850858561084b86610b69565b611049565b60019150509392505050565b60006012905090565b600080610870610dc9565b9050610899818561088086610b69565b61088a8589610ca4565b61089491906121bf565b610dd1565b600191505092915050565b60006064600554836108b691906121f3565b6108c09190612264565b9050919050565b6108cf61134b565b6108f7826108db61085c565b600a6108e791906123c8565b836108f291906121f3565b6113c9565b5050565b60006109446000808473ffffffffffffffffffffffffffffffffffffffff1673ffffffffffffffffffffffffffffffffffffffff168152602001908152602001600020546108a4565b9050919050565b61095361134b565b61095d600061151f565b565b6000600d60008373ffffffffffffffffffffffffffffffffffffffff1673ffffffffffffffffffffffffffffffffffffffff168152602001908152602001600020549050919050565b6109b061134b565b826007819055508160088190555080600981905550505050565b6000600660009054906101000a900473ffffffffffffffffffffffffffffffffffffffff16905090565b606060048054610a0390611ed7565b80601f0160208091040260200160405190810160405280929190818152602001828054610a2f90611ed7565b8015610a7c5780601f10610a5157610100808354040283529160200191610a7c565b820191906000526020600020905b815481529060010190602001808311610a5f57829003601f168201915b5050505050905090565b6000600954600c54610a989190612264565b600854610aa591906121f3565b600754610ab291906121bf565b905090565b600080610ac2610dc9565b90506000610ad08286610ca4565b9050610adb84610b69565b811015610b1d576040517f08c379a0000000000000000000000000000000000000000000000000000000008152600401610b1490612485565b60405180910390fd5b610b328286610b2b87610b69565b8403610dd1565b60019250505092915050565b600080610b49610dc9565b9050610b5e8185610b5986610b69565b611049565b600191505092915050565b60008060055403610b7d5760009050610b9a565b600554606483610b8d91906121f3565b610b979190612264565b90505b919050565b610ba761134b565b610bb0816115e5565b50565b6000806000600754600854600954925092509250909192565b610bd461134b565b848490508210610c19576040517f08c379a0000000000000000000000000000000000000000000000000000000008152600401610c10906124f1565b60405180910390fd5b6000858590508284610c2b91906121bf565b11610c41578183610c3c91906121bf565b610c46565b858590505b905060008390505b81811015610c9b57610c8833888884818110610c6d57610c6c612511565b5b9050602002016020810190610c829190611c9a565b87611049565b8080610c9390611fa3565b915050610c4e565b50505050505050565b6000610d2b600160008573ffffffffffffffffffffffffffffffffffffffff1673ffffffffffffffffffffffffffffffffffffffff16815260200190815260200160002060008473ffffffffffffffffffffffffffffffffffffffff1673ffffffffffffffffffffffffffffffffffffffff168152602001908152602001600020546108a4565b905092915050565b60006003905090565b6000600554905090565b610d4e61134b565b600073ffffffffffffffffffffffffffffffffffffffff168173ffffffffffffffffffffffffffffffffffffffff1603610dbd576040517f08c379a0000000000000000000000000000000000000000000000000000000008152600401610db4906125b2565b60405180910390fd5b610dc68161151f565b50565b600033905090565b600073ffffffffffffffffffffffffffffffffffffffff168373ffffffffffffffffffffffffffffffffffffffff1603610e40576040517f08c379a0000000000000000000000000000000000000000000000000000000008152600401610e3790612644565b60405180910390fd5b600073ffffffffffffffffffffffffffffffffffffffff168273ffffffffffffffffffffffffffffffffffffffff1603610eaf576040517f08c379a0000000000000000000000000000000000000000000000000000000008152600401610ea6906126d6565b60405180910390fd5b80600160008573ffffffffffffffffffffffffffffffffffffffff1673ffffffffffffffffffffffffffffffffffffffff16815260200190815260200160002060008473ffffffffffffffffffffffffffffffffffffffff1673ffffffffffffffffffffffffffffffffffffffff168152602001908152602001600020819055508173ffffffffffffffffffffffffffffffffffffffff168373ffffffffffffffffffffffffffffffffffffffff167f8c5be1e5ebec7d5bd14f71427d1e84f3dd0314c0f7b2291e5b200ac8c7c3b92583604051610f8d9190611ac4565b60405180910390a3505050565b60007f19457468657265756d205369676e6564204d6573736167653a0a33320000000060005281601c52603c6000209050919050565b6000806000610fe18787878761169d565b91509150610fee8161177f565b8192505050949350505050565b600080611006610a86565b9050600b600081548092919061101b90611fa3565b919050555043600a541461104257600b54600c819055506000600b8190555043600a819055505b8091505090565b600073ffffffffffffffffffffffffffffffffffffffff168373ffffffffffffffffffffffffffffffffffffffff16036110b8576040517f08c379a00000000000000000000000000000000000000000000000000000000081526004016110af90612768565b60405180910390fd5b600073ffffffffffffffffffffffffffffffffffffffff168273ffffffffffffffffffffffffffffffffffffffff1603611127576040517f08c379a000000000000000000000000000000000000000000000000000000000815260040161111e906127fa565b60405180910390fd5b6111328383836118e5565b60008060008573ffffffffffffffffffffffffffffffffffffffff1673ffffffffffffffffffffffffffffffffffffffff168152602001908152602001600020549050818110156111b8576040517f08c379a00000000000000000000000000000000000000000000000000000000081526004016111af9061288c565b60405180910390fd5b8181036000808673ffffffffffffffffffffffffffffffffffffffff1673ffffffffffffffffffffffffffffffffffffffff16815260200190815260200160002081905550816000808573ffffffffffffffffffffffffffffffffffffffff1673ffffffffffffffffffffffffffffffffffffffff168152602001908152602001600020600082825401925050819055508273ffffffffffffffffffffffffffffffffffffffff168473ffffffffffffffffffffffffffffffffffffffff167fddf252ad1be2c89b69c2b068fc378daa952ba7f163c4a11628f55a4df523b3ef846040516112a69190611ac4565b60405180910390a36112b98484846118ea565b50505050565b60006112cb8484610ca4565b90507fffffffffffffffffffffffffffffffffffffffffffffffffffffffffffffffff81146113455781811015611337576040517f08c379a000000000000000000000000000000000000000000000000000000000815260040161132e906128f8565b60405180910390fd5b6113448484848403610dd1565b5b50505050565b611353610dc9565b73ffffffffffffffffffffffffffffffffffffffff166113716109ca565b73ffffffffffffffffffffffffffffffffffffffff16146113c7576040517f08c379a00000000000000000000000000000000000000000000000000000000081526004016113be90612964565b60405180910390fd5b565b600073ffffffffffffffffffffffffffffffffffffffff168273ffffffffffffffffffffffffffffffffffffffff1603611438576040517f08c379a000000000000000000000000000000000000000000000000000000000815260040161142f906129d0565b60405180910390fd5b611444600083836118e5565b806002600082825461145691906121bf565b92505081905550806000808473ffffffffffffffffffffffffffffffffffffffff1673ffffffffffffffffffffffffffffffffffffffff168152602001908152602001600020600082825401925050819055508173ffffffffffffffffffffffffffffffffffffffff16600073ffffffffffffffffffffffffffffffffffffffff167fddf252ad1be2c89b69c2b068fc378daa952ba7f163c4a11628f55a4df523b3ef836040516115079190611ac4565b60405180910390a361151b600083836118ea565b5050565b6000600660009054906101000a900473ffffffffffffffffffffffffffffffffffffffff16905081600660006101000a81548173ffffffffffffffffffffffffffffffffffffffff021916908373ffffffffffffffffffffffffffffffffffffffff1602179055508173ffffffffffffffffffffffffffffffffffffffff168173ffffffffffffffffffffffffffffffffffffffff167f8be0079c531659141344cd1fd0a4f28419497f9722a3daafe3b4186f6b6457e060405160405180910390a35050565b600181101580156115f857506103e88111155b611637576040517f08c379a000000000000000000000000000000000000000000000000000000000815260040161162e90612a62565b60405180910390fd5b6000600554905060648260055461164e91906121f3565b6116589190612264565b6005819055507f11c6bf55864ff83827df712625d7a80e5583eef0264921025e7cd22003a2151181600554604051611691929190612a82565b60405180910390a15050565b6000807f7fffffffffffffffffffffffffffffff5d576e7357a4501ddfe92f46681b20a08360001c11156116d8576000600391509150611776565b6000600187878787604051600081526020016040526040516116fd9493929190612aba565b6020604051602081039080840390855afa15801561171f573d6000803e3d6000fd5b505050602060405103519050600073ffffffffffffffffffffffffffffffffffffffff168173ffffffffffffffffffffffffffffffffffffffff160361176d57600060019250925050611776565b80600092509250505b94509492505050565b6000600481111561179357611792612aff565b5b8160048111156117a6576117a5612aff565b5b03156118e257600160048111156117c0576117bf612aff565b5b8160048111156117d3576117d2612aff565b5b03611813576040517f08c379a000000000000000000000000000000000000000000000000000000000815260040161180a90612b7a565b60405180910390fd5b6002600481111561182757611826612aff565b5b81600481111561183a57611839612aff565b5b0361187a576040517f08c379a000000000000000000000000000000000000000000000000000000000815260040161187190612be6565b60405180910390fd5b6003600481111561188e5761188d612aff565b5b8160048111156118a1576118a0612aff565b5b036118e1576040517f08c379a00000000000000000000000000000000000000000000000000000000081526004016118d890612c78565b60405180910390fd5b5b50565b505050565b505050565b600081519050919050565b600082825260208201905092915050565b60005b8381101561192957808201518184015260208101905061190e565b60008484015250505050565b6000601f19601f8301169050919050565b6000611951826118ef565b61195b81856118fa565b935061196b81856020860161190b565b61197481611935565b840191505092915050565b600060208201905081810360008301526119998184611946565b905092915050565b600080fd5b600080fd5b600073ffffffffffffffffffffffffffffffffffffffff82169050919050565b60006119d6826119ab565b9050919050565b6119e6816119cb565b81146119f157600080fd5b50565b600081359050611a03816119dd565b92915050565b6000819050919050565b611a1c81611a09565b8114611a2757600080fd5b50565b600081359050611a3981611a13565b92915050565b60008060408385031215611a5657611a556119a1565b5b6000611a64858286016119f4565b9250506020611a7585828601611a2a565b9150509250929050565b60008115159050919050565b611a9481611a7f565b82525050565b6000602082019050611aaf6000830184611a8b565b92915050565b611abe81611a09565b82525050565b6000602082019050611ad96000830184611ab5565b92915050565b600060ff82169050919050565b611af581611adf565b8114611b0057600080fd5b50565b600081359050611b1281611aec565b92915050565b6000819050919050565b611b2b81611b18565b8114611b3657600080fd5b50565b600081359050611b4881611b22565b92915050565b600080600080600080600060e0888a031215611b6d57611b6c6119a1565b5b6000611b7b8a828b016119f4565b9750506020611b8c8a828b016119f4565b9650506040611b9d8a828b01611a2a565b9550506060611bae8a828b01611a2a565b9450506080611bbf8a828b01611b03565b93505060a0611bd08a828b01611b39565b92505060c0611be18a828b01611b39565b91505092959891949750929550565b600080600060608486031215611c0957611c086119a1565b5b6000611c17868287016119f4565b9350506020611c28868287016119f4565b9250506040611c3986828701611a2a565b9150509250925092565b611c4c81611adf565b82525050565b6000602082019050611c676000830184611c43565b92915050565b600060208284031215611c8357611c826119a1565b5b6000611c9184828501611a2a565b91505092915050565b600060208284031215611cb057611caf6119a1565b5b6000611cbe848285016119f4565b91505092915050565b600080600060608486031215611ce057611cdf6119a1565b5b6000611cee86828701611a2a565b9350506020611cff86828701611a2a565b9250506040611d1086828701611a2a565b9150509250925092565b611d23816119cb565b82525050565b6000602082019050611d3e6000830184611d1a565b92915050565b6000606082019050611d596000830186611ab5565b611d666020830185611ab5565b611d736040830184611ab5565b949350505050565b600080fd5b600080fd5b600080fd5b60008083601f840112611da057611d9f611d7b565b5b8235905067ffffffffffffffff811115611dbd57611dbc611d80565b5b602083019150836020820283011115611dd957611dd8611d85565b5b9250929050565b600080600080600060808688031215611dfc57611dfb6119a1565b5b600086013567ffffffffffffffff811115611e1a57611e196119a6565b5b611e2688828901611d8a565b95509550506020611e3988828901611a2a565b9350506040611e4a88828901611a2a565b9250506060611e5b88828901611a2a565b9150509295509295909350565b60008060408385031215611e7f57611e7e6119a1565b5b6000611e8d858286016119f4565b9250506020611e9e858286016119f4565b9150509250929050565b7f4e487b7100000000000000000000000000000000000000000000000000000000600052602260045260246000fd5b60006002820490506001821680611eef57607f821691505b602082108103611f0257611f01611ea8565b5b50919050565b7f4665652063616e6e6f742065786365656420616d6f756e740000000000000000600082015250565b6000611f3e6018836118fa565b9150611f4982611f08565b602082019050919050565b60006020820190508181036000830152611f6d81611f31565b9050919050565b7f4e487b7100000000000000000000000000000000000000000000000000000000600052601160045260246000fd5b6000611fae82611a09565b91507fffffffffffffffffffffffffffffffffffffffffffffffffffffffffffffffff8203611fe057611fdf611f74565b5b600182019050919050565b60008160601b9050919050565b600061200382611feb565b9050919050565b600061201582611ff8565b9050919050565b61202d612028826119cb565b61200a565b82525050565b6000819050919050565b61204e61204982611a09565b612033565b82525050565b6000612060828861201c565b601482019150612070828761201c565b601482019150612080828661203d565b602082019150612090828561203d565b6020820191506120a0828461203d565b6020820191508190509695505050505050565b7f496e76616c6964207369676e6174757265000000000000000000000000000000600082015250565b60006120e96011836118fa565b91506120f4826120b3565b602082019050919050565b60006020820190508181036000830152612118816120dc565b9050919050565b7f5369676e61747572652065787069726564000000000000000000000000000000600082015250565b60006121556011836118fa565b91506121608261211f565b602082019050919050565b6000602082019050818103600083015261218481612148565b9050919050565b600061219682611a09565b91506121a183611a09565b92508282039050818111156121b9576121b8611f74565b5b92915050565b60006121ca82611a09565b91506121d583611a09565b92508282019050808211156121ed576121ec611f74565b5b92915050565b60006121fe82611a09565b915061220983611a09565b925082820261221781611a09565b9150828204841483151761222e5761222d611f74565b5b5092915050565b7f4e487b7100000000000000000000000000000000000000000000000000000000600052601260045260246000fd5b600061226f82611a09565b915061227a83611a09565b92508261228a57612289612235565b5b828204905092915050565b60008160011c9050919050565b6000808291508390505b60018511156122ec578086048111156122c8576122c7611f74565b5b60018516156122d75780820291505b80810290506122e585612295565b94506122ac565b94509492505050565b60008261230557600190506123c1565b8161231357600090506123c1565b8160018114612329576002811461233357612362565b60019150506123c1565b60ff84111561234557612344611f74565b5b8360020a91508482111561235c5761235b611f74565b5b506123c1565b5060208310610133831016604e8410600b84101617156123975782820a90508381111561239257612391611f74565b5b6123c1565b6123a484848460016122a2565b925090508184048111156123bb576123ba611f74565b5b81810290505b9392505050565b60006123d382611a09565b91506123de83611adf565b925061240b7fffffffffffffffffffffffffffffffffffffffffffffffffffffffffffffffff84846122f5565b905092915050565b7f45524332303a2064656372656173656420616c6c6f77616e63652062656c6f7760008201527f207a65726f000000000000000000000000000000000000000000000000000000602082015250565b600061246f6025836118fa565b915061247a82612413565b604082019050919050565b6000602082019050818103600083015261249e81612462565b9050919050565b7f496e76616c696420737461727420696e64657800000000000000000000000000600082015250565b60006124db6013836118fa565b91506124e6826124a5565b602082019050919050565b6000602082019050818103600083015261250a816124ce565b9050919050565b7f4e487b7100000000000000000000000000000000000000000000000000000000600052603260045260246000fd5b7f4f776e61626c653a206e6577206f776e657220697320746865207a65726f206160008201527f6464726573730000000000000000000000000000000000000000000000000000602082015250565b600061259c6026836118fa565b91506125a782612540565b604082019050919050565b600060208201905081810360008301526125cb8161258f565b9050919050565b7f45524332303a20617070726f76652066726f6d20746865207a65726f2061646460008201527f7265737300000000000000000000000000000000000000000000000000000000602082015250565b600061262e6024836118fa565b9150612639826125d2565b604082019050919050565b6000602082019050818103600083015261265d81612621565b9050919050565b7f45524332303a20617070726f766520746f20746865207a65726f20616464726560008201527f7373000000000000000000000000000000000000000000000000000000000000602082015250565b60006126c06022836118fa565b91506126cb82612664565b604082019050919050565b600060208201905081810360008301526126ef816126b3565b9050919050565b7f45524332303a207472616e736665722066726f6d20746865207a65726f20616460008201527f6472657373000000000000000000000000000000000000000000000000000000602082015250565b60006127526025836118fa565b915061275d826126f6565b604082019050919050565b6000602082019050818103600083015261278181612745565b9050919050565b7f45524332303a207472616e7366657220746f20746865207a65726f206164647260008201527f6573730000000000000000000000000000000000000000000000000000000000602082015250565b60006127e46023836118fa565b91506127ef82612788565b604082019050919050565b60006020820190508181036000830152612813816127d7565b9050919050565b7f45524332303a207472616e7366657220616d6f756e742065786365656473206260008201527f616c616e63650000000000000000000000000000000000000000000000000000602082015250565b60006128766026836118fa565b91506128818261281a565b604082019050919050565b600060208201905081810360008301526128a581612869565b9050919050565b7f45524332303a20696e73756666696369656e7420616c6c6f77616e6365000000600082015250565b60006128e2601d836118fa565b91506128ed826128ac565b602082019050919050565b60006020820190508181036000830152612911816128d5565b9050919050565b7f4f776e61626c653a2063616c6c6572206973206e6f7420746865206f776e6572600082015250565b600061294e6020836118fa565b915061295982612918565b602082019050919050565b6000602082019050818103600083015261297d81612941565b9050919050565b7f45524332303a206d696e7420746f20746865207a65726f206164647265737300600082015250565b60006129ba601f836118fa565b91506129c582612984565b602082019050919050565b600060208201905081810360008301526129e9816129ad565b9050919050565b7f50657263656e74616765206368616e67652073686f756c64206265206265747760008201527f65656e20312520616e6420313030302500000000000000000000000000000000602082015250565b6000612a4c6030836118fa565b9150612a57826129f0565b604082019050919050565b60006020820190508181036000830152612a7b81612a3f565b9050919050565b6000604082019050612a976000830185611ab5565b612aa46020830184611ab5565b9392505050565b612ab481611b18565b82525050565b6000608082019050612acf6000830187612aab565b612adc6020830186611c43565b612ae96040830185612aab565b612af66060830184612aab565b95945050505050565b7f4e487b7100000000000000000000000000000000000000000000000000000000600052602160045260246000fd5b7f45434453413a20696e76616c6964207369676e61747572650000000000000000600082015250565b6000612b646018836118fa565b9150612b6f82612b2e565b602082019050919050565b60006020820190508181036000830152612b9381612b57565b9050919050565b7f45434453413a20696e76616c6964207369676e6174757265206c656e67746800600082015250565b6000612bd0601f836118fa565b9150612bdb82612b9a565b602082019050919050565b60006020820190508181036000830152612bff81612bc3565b9050919050565b7f45434453413a20696e76616c6964207369676e6174757265202773272076616c60008201527f7565000000000000000000000000000000000000000000000000000000000000602082015250565b6000612c626022836118fa565b9150612c6d82612c06565b604082019050919050565b60006020820190508181036000830152612c9181612c55565b905091905056fea2646970667358221220e0d0e63b23237e2cf2c5daa613a8247f19fe85c1250a7ff00b71d083152f64c664736f6c63430008120033",
  "linkReferences": {},
  "deployedLinkReferences": {}
}